{
  "_format": "hh-sol-artifact-1",
  "contractName": "Staker",
  "sourceName": "contracts/Staker.sol",
  "abi": [
    {
      "anonymous": false,
      "inputs": [
        {
          "indexed": true,
          "internalType": "address",
          "name": "sender",
          "type": "address"
        },
        {
          "indexed": false,
          "internalType": "uint256",
          "name": "amount",
          "type": "uint256"
        }
      ],
      "name": "Staked",
      "type": "event"
    },
    {
      "anonymous": false,
      "inputs": [
        {
          "indexed": true,
          "internalType": "address",
          "name": "sender",
          "type": "address"
        },
        {
          "indexed": false,
          "internalType": "uint256",
          "name": "amount",
          "type": "uint256"
        }
      ],
      "name": "Withdrawn",
      "type": "event"
    },
    {
      "inputs": [],
      "name": "claimPeriod",
      "outputs": [
        {
          "internalType": "uint256",
          "name": "",
          "type": "uint256"
        }
      ],
      "stateMutability": "view",
      "type": "function"
    },
    {
      "inputs": [],
      "name": "claimPeriodLeft",
      "outputs": [
        {
          "internalType": "uint256",
          "name": "",
          "type": "uint256"
        }
      ],
      "stateMutability": "view",
      "type": "function"
    },
    {
      "inputs": [],
      "name": "rewardRatePerSecond",
      "outputs": [
        {
          "internalType": "uint256",
          "name": "",
          "type": "uint256"
        }
      ],
      "stateMutability": "view",
      "type": "function"
    },
    {
      "inputs": [],
      "name": "stake",
      "outputs": [],
      "stateMutability": "payable",
      "type": "function"
    },
    {
      "inputs": [
        {
          "internalType": "address",
          "name": "",
          "type": "address"
        }
      ],
      "name": "stakes",
      "outputs": [
        {
          "internalType": "uint256",
          "name": "amount",
          "type": "uint256"
        },
        {
          "internalType": "uint256",
          "name": "depositTimestamp",
          "type": "uint256"
        }
      ],
      "stateMutability": "view",
      "type": "function"
    },
    {
      "inputs": [],
      "name": "withdraw",
      "outputs": [],
      "stateMutability": "nonpayable",
      "type": "function"
    },
    {
      "inputs": [],
      "name": "withdrawalPeriod",
      "outputs": [
        {
          "internalType": "uint256",
          "name": "",
          "type": "uint256"
        }
      ],
      "stateMutability": "view",
      "type": "function"
    },
    {
      "inputs": [],
      "name": "withdrawalTimeLeft",
      "outputs": [
        {
          "internalType": "uint256",
          "name": "",
          "type": "uint256"
        }
      ],
      "stateMutability": "view",
      "type": "function"
    },
    {
      "stateMutability": "payable",
      "type": "receive"
    }
  ],
  "bytecode": "0x608060405234801561001057600080fd5b50610a92806100206000396000f3fe60806040526004361061007f5760003560e01c80635d773b2c1161004e5780635d773b2c146101155780637dc2cd9814610140578063bca7093d1461016b578063f78941761461019657610086565b806316934fc41461008b57806324a5a2ce146100c95780633a4b66f1146100f45780633ccfd60b146100fe57610086565b3661008657005b600080fd5b34801561009757600080fd5b506100b260048036038101906100ad9190610712565b6101c1565b6040516100c0929190610758565b60405180910390f35b3480156100d557600080fd5b506100de6101e5565b6040516100eb9190610781565b60405180910390f35b6100fc61026c565b005b34801561010a57600080fd5b50610113610373565b005b34801561012157600080fd5b5061012a61059e565b6040516101379190610781565b60405180910390f35b34801561014c57600080fd5b506101556105aa565b6040516101629190610781565b60405180910390f35b34801561017757600080fd5b506101806105af565b60405161018d9190610781565b60405180910390f35b3480156101a257600080fd5b506101ab6105b4565b6040516101b89190610781565b60405180910390f35b60006020528060005260406000206000915090508060000154908060010154905082565b6000806000803373ffffffffffffffffffffffffffffffffffffffff1673ffffffffffffffffffffffffffffffffffffffff168152602001908152602001600020905060f0816001015461023991906107cb565b4210610249576000915050610269565b4260f0826001015461025b91906107cb565b61026591906107ff565b9150505b90565b600034116102af576040517f08c379a00000000000000000000000000000000000000000000000000000000081526004016102a690610890565b60405180910390fd5b60008060003373ffffffffffffffffffffffffffffffffffffffff1673ffffffffffffffffffffffffffffffffffffffff16815260200190815260200160002090503481600001600082825461030591906107cb565b925050819055506000816001015403610322574281600101819055505b3373ffffffffffffffffffffffffffffffffffffffff167f9e71bc8eea02a63969f509818f2dafb9254532904319f9dbda79b67bd34a5f3d346040516103689190610781565b60405180910390a250565b60008060003373ffffffffffffffffffffffffffffffffffffffff1673ffffffffffffffffffffffffffffffffffffffff168152602001908152602001600020905060008160000154116103fc576040517f08c379a00000000000000000000000000000000000000000000000000000000081526004016103f3906108fc565b60405180910390fd5b6078816001015461040d91906107cb565b42101561044f576040517f08c379a00000000000000000000000000000000000000000000000000000000081526004016104469061098e565b60405180910390fd5b600061045a3361063b565b9050600081836000015461046e91906107cb565b9050804710156104b3576040517f08c379a00000000000000000000000000000000000000000000000000000000081526004016104aa906109fa565b60405180910390fd5b6000803373ffffffffffffffffffffffffffffffffffffffff1673ffffffffffffffffffffffffffffffffffffffff168152602001908152602001600020600080820160009055600182016000905550503373ffffffffffffffffffffffffffffffffffffffff166108fc829081150290604051600060405180830381858888f1935050505015801561054a573d6000803e3d6000fd5b503373ffffffffffffffffffffffffffffffffffffffff167f7084f5476618d8e60b11ef0d7d3f06914655adb8793e28ff7f018d4c76d505d5826040516105919190610781565b60405180910390a2505050565b67016345785d8a000081565b60f081565b607881565b6000806000803373ffffffffffffffffffffffffffffffffffffffff1673ffffffffffffffffffffffffffffffffffffffff16815260200190815260200160002090506078816001015461060891906107cb565b4210610618576000915050610638565b426078826001015461062a91906107cb565b61063491906107ff565b9150505b90565b6000806000808473ffffffffffffffffffffffffffffffffffffffff1673ffffffffffffffffffffffffffffffffffffffff1681526020019081526020016000209050600081600101544261069091906107ff565b905067016345785d8a0000816106a69190610a1a565b92505050919050565b600080fd5b600073ffffffffffffffffffffffffffffffffffffffff82169050919050565b60006106df826106b4565b9050919050565b6106ef816106d4565b81146106fa57600080fd5b50565b60008135905061070c816106e6565b92915050565b600060208284031215610728576107276106af565b5b6000610736848285016106fd565b91505092915050565b6000819050919050565b6107528161073f565b82525050565b600060408201905061076d6000830185610749565b61077a6020830184610749565b9392505050565b60006020820190506107966000830184610749565b92915050565b7f4e487b7100000000000000000000000000000000000000000000000000000000600052601160045260246000fd5b60006107d68261073f565b91506107e18361073f565b92508282019050808211156107f9576107f861079c565b5b92915050565b600061080a8261073f565b91506108158361073f565b925082820390508181111561082d5761082c61079c565b5b92915050565b600082825260208201905092915050565b7f416d6f756e74206d7573742062652067726561746572207468616e2030000000600082015250565b600061087a601d83610833565b915061088582610844565b602082019050919050565b600060208201905081810360008301526108a98161086d565b9050919050565b7f4e6f207374616b6520746f207769746864726177000000000000000000000000600082015250565b60006108e6601483610833565b91506108f1826108b0565b602082019050919050565b60006020820190508181036000830152610915816108d9565b9050919050565b7f5769746864726177616c20706572696f64206e6f74207265616368656420796560008201527f7400000000000000000000000000000000000000000000000000000000000000602082015250565b6000610978602183610833565b91506109838261091c565b604082019050919050565b600060208201905081810360008301526109a78161096b565b9050919050565b7f436f6e74726163742062616c616e636520696e73756666696369656e74000000600082015250565b60006109e4601d83610833565b91506109ef826109ae565b602082019050919050565b60006020820190508181036000830152610a13816109d7565b9050919050565b6000610a258261073f565b9150610a308361073f565b9250828202610a3e8161073f565b91508282048414831517610a5557610a5461079c565b5b509291505056fea26469706673582212207517055b2f4cab0d173c2dc9b59371c38226da35ad34672bac306f7ee0772cb064736f6c63430008180033",
  "linkReferences": {},
  "deployedLinkReferences": {}
}