{
  "_format": "hh-sol-artifact-1",
  "contractName": "FusePayManager",
  "sourceName": "contracts/FusePayManager.sol",
  "abi": [
    {
      "inputs": [
        {
          "internalType": "address",
          "name": "_employeeAddress",
          "type": "address"
        },
        {
          "internalType": "address",
          "name": "_companyAddress",
          "type": "address"
        },
        {
          "internalType": "uint256",
          "name": "_salary",
          "type": "uint256"
        },
        {
          "internalType": "string",
          "name": "_name",
          "type": "string"
        }
      ],
      "name": "addEmployee",
      "outputs": [
        {
          "internalType": "bool",
          "name": "",
          "type": "bool"
        }
      ],
      "stateMutability": "nonpayable",
      "type": "function"
    },
    {
      "inputs": [
        {
          "internalType": "uint256",
          "name": "",
          "type": "uint256"
        }
      ],
      "name": "companies",
      "outputs": [
        {
          "internalType": "contract FusePay",
          "name": "",
          "type": "address"
        }
      ],
      "stateMutability": "view",
      "type": "function"
    },
    {
      "inputs": [
        {
          "internalType": "address",
          "name": "",
          "type": "address"
        }
      ],
      "name": "companyIDs",
      "outputs": [
        {
          "internalType": "uint256",
          "name": "",
          "type": "uint256"
        }
      ],
      "stateMutability": "view",
      "type": "function"
    },
    {
      "inputs": [],
      "name": "companyIdCounter",
      "outputs": [
        {
          "internalType": "uint256",
          "name": "",
          "type": "uint256"
        }
      ],
      "stateMutability": "view",
      "type": "function"
    },
    {
      "inputs": [
        {
          "internalType": "string",
          "name": "companyCID",
          "type": "string"
        }
      ],
      "name": "createCompany",
      "outputs": [
        {
          "internalType": "bool",
          "name": "",
          "type": "bool"
        }
      ],
      "stateMutability": "nonpayable",
      "type": "function"
    },
    {
      "inputs": [
        {
          "internalType": "address",
          "name": "_admin",
          "type": "address"
        }
      ],
      "name": "getAdminCompanies",
      "outputs": [
        {
          "internalType": "address[]",
          "name": "",
          "type": "address[]"
        }
      ],
      "stateMutability": "view",
      "type": "function"
    },
    {
      "inputs": [],
      "name": "getCompanies",
      "outputs": [
        {
          "internalType": "address[]",
          "name": "_companies",
          "type": "address[]"
        }
      ],
      "stateMutability": "view",
      "type": "function"
    },
    {
      "inputs": [
        {
          "internalType": "address",
          "name": "_employeeAddress",
          "type": "address"
        }
      ],
      "name": "getEmployeeCompanies",
      "outputs": [
        {
          "internalType": "address[]",
          "name": "",
          "type": "address[]"
        }
      ],
      "stateMutability": "view",
      "type": "function"
    }
  ],
  "bytecode": "0x608060405234801561001057600080fd5b50614f50806100206000396000f3fe60806040523480156200001157600080fd5b5060043610620000945760003560e01c806397fc39dc116200006357806397fc39dc1462000149578063a55bf8e9146200017f578063c6995ce914620001b5578063fd7f611e14620001eb5762000094565b80630c0b669114620000995780632813d19d14620000bb578063469a759f14620000f1578063870d4c961462000127575b600080fd5b620000a362000221565b604051620000b2919062000c4e565b60405180910390f35b620000d96004803603810190620000d3919062000cc1565b62000326565b604051620000e8919062000d5e565b60405180910390f35b6200010f600480360381019062000109919062000dac565b62000366565b6040516200011e919062000def565b60405180910390f35b620001316200037e565b60405162000140919062000def565b60405180910390f35b62000167600480360381019062000161919062000dac565b62000384565b60405162000176919062000c4e565b60405180910390f35b6200019d600480360381019062000197919062000f6e565b62000453565b604051620001ac91906200101c565b60405180910390f35b620001d36004803603810190620001cd919062000dac565b620008bb565b604051620001e2919062000c4e565b60405180910390f35b62000209600480360381019062000203919062001039565b6200098a565b6040516200021891906200101c565b60405180910390f35b606060005467ffffffffffffffff81111562000242576200024162000e27565b5b604051908082528060200260200182016040528015620002715781602001602082028036833780820191505090505b50905060005b6000548110156200032257600181815481106200029957620002986200108a565b5b9060005260206000200160009054906101000a900473ffffffffffffffffffffffffffffffffffffffff16828281518110620002da57620002d96200108a565b5b602002602001019073ffffffffffffffffffffffffffffffffffffffff16908173ffffffffffffffffffffffffffffffffffffffff1681525050808060010191505062000277565b5090565b600181815481106200033757600080fd5b906000526020600020016000915054906101000a900473ffffffffffffffffffffffffffffffffffffffff1681565b60026020528060005260406000206000915090505481565b60005481565b6060600360008373ffffffffffffffffffffffffffffffffffffffff1673ffffffffffffffffffffffffffffffffffffffff1681526020019081526020016000208054806020026020016040519081016040528092919081815260200182805480156200044757602002820191906000526020600020905b8160009054906101000a900473ffffffffffffffffffffffffffffffffffffffff1673ffffffffffffffffffffffffffffffffffffffff1681526020019060010190808311620003fc575b50505050509050919050565b600080600260008673ffffffffffffffffffffffffffffffffffffffff1673ffffffffffffffffffffffffffffffffffffffff168152602001908152602001600020549050600060018281548110620004b157620004b06200108a565b5b9060005260206000200160009054906101000a900473ffffffffffffffffffffffffffffffffffffffff1673ffffffffffffffffffffffffffffffffffffffff16636e9960c36040518163ffffffff1660e01b8152600401602060405180830381865afa15801562000527573d6000803e3d6000fd5b505050506040513d601f19601f820116820180604052508101906200054d9190620010d0565b90508073ffffffffffffffffffffffffffffffffffffffff163373ffffffffffffffffffffffffffffffffffffffff1614620005c0576040517f08c379a0000000000000000000000000000000000000000000000000000000008152600401620005b79062001163565b60405180910390fd5b60018281548110620005d757620005d66200108a565b5b9060005260206000200160009054906101000a900473ffffffffffffffffffffffffffffffffffffffff1673ffffffffffffffffffffffffffffffffffffffff1663f3cb8c31886040518263ffffffff1660e01b81526004016200063c919062001196565b6020604051808303816000875af11580156200065c573d6000803e3d6000fd5b505050506040513d601f19601f82011682018060405250810190620006829190620011e4565b50600182815481106200069a57620006996200108a565b5b9060005260206000200160009054906101000a900473ffffffffffffffffffffffffffffffffffffffff1673ffffffffffffffffffffffffffffffffffffffff1663aa11140288866040518363ffffffff1660e01b8152600401620007019291906200128e565b6020604051808303816000875af115801562000721573d6000803e3d6000fd5b505050506040513d601f19601f82011682018060405250810190620007479190620011e4565b50600182815481106200075f576200075e6200108a565b5b9060005260206000200160009054906101000a900473ffffffffffffffffffffffffffffffffffffffff1673ffffffffffffffffffffffffffffffffffffffff166357629a1688876040518363ffffffff1660e01b8152600401620007c6929190620012c2565b6020604051808303816000875af1158015620007e6573d6000803e3d6000fd5b505050506040513d601f19601f820116820180604052508101906200080c9190620011e4565b50600360008873ffffffffffffffffffffffffffffffffffffffff1673ffffffffffffffffffffffffffffffffffffffff168152602001908152602001600020869080600181540180825580915050600190039060005260206000200160009091909190916101000a81548173ffffffffffffffffffffffffffffffffffffffff021916908373ffffffffffffffffffffffffffffffffffffffff160217905550600192505050949350505050565b6060600460008373ffffffffffffffffffffffffffffffffffffffff1673ffffffffffffffffffffffffffffffffffffffff1681526020019081526020016000208054806020026020016040519081016040528092919081815260200182805480156200097e57602002820191906000526020600020905b8160009054906101000a900473ffffffffffffffffffffffffffffffffffffffff1673ffffffffffffffffffffffffffffffffffffffff168152602001906001019080831162000933575b50505050509050919050565b6000806000549050600080815480929190620009a6906200131e565b91905055506000833383604051620009be9062000b3e565b620009cc939291906200136b565b604051809103906000f080158015620009e9573d6000803e3d6000fd5b5090506001819080600181540180825580915050600190039060005260206000200160009091909190916101000a81548173ffffffffffffffffffffffffffffffffffffffff021916908373ffffffffffffffffffffffffffffffffffffffff16021790555081600260008373ffffffffffffffffffffffffffffffffffffffff1673ffffffffffffffffffffffffffffffffffffffff16815260200190815260200160002081905550600460003373ffffffffffffffffffffffffffffffffffffffff1673ffffffffffffffffffffffffffffffffffffffff168152602001908152602001600020819080600181540180825580915050600190039060005260206000200160009091909190916101000a81548173ffffffffffffffffffffffffffffffffffffffff021916908373ffffffffffffffffffffffffffffffffffffffff160217905550600192505050919050565b613b6b80620013b083390190565b600081519050919050565b600082825260208201905092915050565b6000819050602082019050919050565b600073ffffffffffffffffffffffffffffffffffffffff82169050919050565b600062000ba58262000b78565b9050919050565b62000bb78162000b98565b82525050565b600062000bcb838362000bac565b60208301905092915050565b6000602082019050919050565b600062000bf18262000b4c565b62000bfd818562000b57565b935062000c0a8362000b68565b8060005b8381101562000c4157815162000c25888262000bbd565b975062000c328362000bd7565b92505060018101905062000c0e565b5085935050505092915050565b6000602082019050818103600083015262000c6a818462000be4565b905092915050565b6000604051905090565b600080fd5b600080fd5b6000819050919050565b62000c9b8162000c86565b811462000ca757600080fd5b50565b60008135905062000cbb8162000c90565b92915050565b60006020828403121562000cda5762000cd962000c7c565b5b600062000cea8482850162000caa565b91505092915050565b6000819050919050565b600062000d1e62000d1862000d128462000b78565b62000cf3565b62000b78565b9050919050565b600062000d328262000cfd565b9050919050565b600062000d468262000d25565b9050919050565b62000d588162000d39565b82525050565b600060208201905062000d75600083018462000d4d565b92915050565b62000d868162000b98565b811462000d9257600080fd5b50565b60008135905062000da68162000d7b565b92915050565b60006020828403121562000dc55762000dc462000c7c565b5b600062000dd58482850162000d95565b91505092915050565b62000de98162000c86565b82525050565b600060208201905062000e06600083018462000dde565b92915050565b600080fd5b600080fd5b6000601f19601f8301169050919050565b7f4e487b7100000000000000000000000000000000000000000000000000000000600052604160045260246000fd5b62000e618262000e16565b810181811067ffffffffffffffff8211171562000e835762000e8262000e27565b5b80604052505050565b600062000e9862000c72565b905062000ea6828262000e56565b919050565b600067ffffffffffffffff82111562000ec95762000ec862000e27565b5b62000ed48262000e16565b9050602081019050919050565b82818337600083830152505050565b600062000f0762000f018462000eab565b62000e8c565b90508281526020810184848401111562000f265762000f2562000e11565b5b62000f3384828562000ee1565b509392505050565b600082601f83011262000f535762000f5262000e0c565b5b813562000f6584826020860162000ef0565b91505092915050565b6000806000806080858703121562000f8b5762000f8a62000c7c565b5b600062000f9b8782880162000d95565b945050602062000fae8782880162000d95565b935050604062000fc18782880162000caa565b925050606085013567ffffffffffffffff81111562000fe55762000fe462000c81565b5b62000ff38782880162000f3b565b91505092959194509250565b60008115159050919050565b620010168162000fff565b82525050565b60006020820190506200103360008301846200100b565b92915050565b60006020828403121562001052576200105162000c7c565b5b600082013567ffffffffffffffff81111562001073576200107262000c81565b5b620010818482850162000f3b565b91505092915050565b7f4e487b7100000000000000000000000000000000000000000000000000000000600052603260045260246000fd5b600081519050620010ca8162000d7b565b92915050565b600060208284031215620010e957620010e862000c7c565b5b6000620010f984828501620010b9565b91505092915050565b600082825260208201905092915050565b7f4e6f204163636573730000000000000000000000000000000000000000000000600082015250565b60006200114b60098362001102565b9150620011588262001113565b602082019050919050565b600060208201905081810360008301526200117e816200113c565b9050919050565b620011908162000b98565b82525050565b6000602082019050620011ad600083018462001185565b92915050565b620011be8162000fff565b8114620011ca57600080fd5b50565b600081519050620011de81620011b3565b92915050565b600060208284031215620011fd57620011fc62000c7c565b5b60006200120d84828501620011cd565b91505092915050565b600081519050919050565b60005b838110156200124157808201518184015260208101905062001224565b60008484015250505050565b60006200125a8262001216565b62001266818562001102565b93506200127881856020860162001221565b620012838162000e16565b840191505092915050565b6000604082019050620012a5600083018562001185565b8181036020830152620012b981846200124d565b90509392505050565b6000604082019050620012d9600083018562001185565b620012e8602083018462000dde565b9392505050565b7f4e487b7100000000000000000000000000000000000000000000000000000000600052601160045260246000fd5b60006200132b8262000c86565b91507fffffffffffffffffffffffffffffffffffffffffffffffffffffffffffffffff820362001360576200135f620012ef565b5b600182019050919050565b600060608201905081810360008301526200138781866200124d565b905062001398602083018562001185565b620013a7604083018462000dde565b94935050505056fe60806040523480156200001157600080fd5b5060405162003b6b38038062003b6b8339818101604052810190620000379190620002cd565b826000908162000048919062000589565b5081600260006101000a81548173ffffffffffffffffffffffffffffffffffffffff021916908373ffffffffffffffffffffffffffffffffffffffff1602179055508060018190555050505062000670565b6000604051905090565b600080fd5b600080fd5b600080fd5b600080fd5b6000601f19601f8301169050919050565b7f4e487b7100000000000000000000000000000000000000000000000000000000600052604160045260246000fd5b6200010382620000b8565b810181811067ffffffffffffffff82111715620001255762000124620000c9565b5b80604052505050565b60006200013a6200009a565b9050620001488282620000f8565b919050565b600067ffffffffffffffff8211156200016b576200016a620000c9565b5b6200017682620000b8565b9050602081019050919050565b60005b83811015620001a357808201518184015260208101905062000186565b60008484015250505050565b6000620001c6620001c0846200014d565b6200012e565b905082815260208101848484011115620001e557620001e4620000b3565b5b620001f284828562000183565b509392505050565b600082601f830112620002125762000211620000ae565b5b815162000224848260208601620001af565b91505092915050565b600073ffffffffffffffffffffffffffffffffffffffff82169050919050565b60006200025a826200022d565b9050919050565b6200026c816200024d565b81146200027857600080fd5b50565b6000815190506200028c8162000261565b92915050565b6000819050919050565b620002a78162000292565b8114620002b357600080fd5b50565b600081519050620002c7816200029c565b92915050565b600080600060608486031215620002e957620002e8620000a4565b5b600084015167ffffffffffffffff8111156200030a5762000309620000a9565b5b6200031886828701620001fa565b93505060206200032b868287016200027b565b92505060406200033e86828701620002b6565b9150509250925092565b600081519050919050565b7f4e487b7100000000000000000000000000000000000000000000000000000000600052602260045260246000fd5b600060028204905060018216806200039b57607f821691505b602082108103620003b157620003b062000353565b5b50919050565b60008190508160005260206000209050919050565b60006020601f8301049050919050565b600082821b905092915050565b6000600883026200041b7fffffffffffffffffffffffffffffffffffffffffffffffffffffffffffffffff82620003dc565b620004278683620003dc565b95508019841693508086168417925050509392505050565b6000819050919050565b60006200046a620004646200045e8462000292565b6200043f565b62000292565b9050919050565b6000819050919050565b620004868362000449565b6200049e620004958262000471565b848454620003e9565b825550505050565b600090565b620004b5620004a6565b620004c28184846200047b565b505050565b5b81811015620004ea57620004de600082620004ab565b600181019050620004c8565b5050565b601f82111562000539576200050381620003b7565b6200050e84620003cc565b810160208510156200051e578190505b620005366200052d85620003cc565b830182620004c7565b50505b505050565b600082821c905092915050565b60006200055e600019846008026200053e565b1980831691505092915050565b60006200057983836200054b565b9150826002028217905092915050565b620005948262000348565b67ffffffffffffffff811115620005b057620005af620000c9565b5b620005bc825462000382565b620005c9828285620004ee565b600060209050601f831160018114620006015760008415620005ec578287015190505b620005f885826200056b565b86555062000668565b601f1984166200061186620003b7565b60005b828110156200063b5784890151825560018201915060208501945060208101905062000614565b868310156200065b578489015162000657601f8916826200054b565b8355505b6001600288020188555050505b505050505050565b6134eb80620006806000396000f3fe60806040526004361061016a5760003560e01c8063a0b9009b116100d1578063f2de396d1161008a578063f688bcfb11610064578063f688bcfb146105be578063f851a440146105da578063fcb988c914610605578063fe8086ac1461061c57610171565b8063f2de396d1461052f578063f3cb8c3114610558578063f5381b7f1461059557610171565b8063a0b9009b146103d5578063aa11140214610412578063ac6403611461044f578063ba83372b14610478578063e647860b146104b5578063ee7f4e43146104f257610171565b80636c08b863116101235780636c08b863146102b15780636c79e167146102da5780636e9960c3146103035780636f5be0d61461032e578063878146c71461036b57806398c61c371461039657610171565b8063033c5567146101765780630c9babc3146101b357806333ea530a146101e15780634739326b1461020c5780634abefa361461024957806357629a161461027457610171565b3661017157005b600080fd5b34801561018257600080fd5b5061019d60048036038101906101989190612352565b610647565b6040516101aa9190612398565b60405180910390f35b3480156101bf57600080fd5b506101c861065f565b6040516101d894939291906127a7565b60405180910390f35b3480156101ed57600080fd5b506101f6610b99565b6040516102039190612398565b60405180910390f35b34801561021857600080fd5b50610233600480360381019061022e9190612834565b610b9f565b6040516102409190612870565b60405180910390f35b34801561025557600080fd5b5061025e610bde565b60405161026b919061288b565b60405180910390f35b34801561028057600080fd5b5061029b600480360381019061029691906128ad565b610c6c565b6040516102a89190612908565b60405180910390f35b3480156102bd57600080fd5b506102d860048036038101906102d39190612834565b610cbc565b005b3480156102e657600080fd5b5061030160048036038101906102fc9190612a58565b610efb565b005b34801561030f57600080fd5b50610318611159565b6040516103259190612870565b60405180910390f35b34801561033a57600080fd5b5061035560048036038101906103509190612352565b611183565b6040516103629190612398565b60405180910390f35b34801561037757600080fd5b506103806111cc565b60405161038d9190612afe565b60405180910390f35b3480156103a257600080fd5b506103bd60048036038101906103b891906128ad565b61125a565b6040516103cc93929190612b2f565b60405180910390f35b3480156103e157600080fd5b506103fc60048036038101906103f79190612352565b611336565b6040516104099190612afe565b60405180910390f35b34801561041e57600080fd5b5061043960048036038101906104349190612b6d565b611407565b6040516104469190612908565b60405180910390f35b34801561045b57600080fd5b5061047660048036038101906104719190612352565b611460565b005b34801561048457600080fd5b5061049f600480360381019061049a9190612352565b61190e565b6040516104ac9190612398565b60405180910390f35b3480156104c157600080fd5b506104dc60048036038101906104d79190612352565b611926565b6040516104e99190612398565b60405180910390f35b3480156104fe57600080fd5b5061051960048036038101906105149190612352565b61196f565b6040516105269190612afe565b60405180910390f35b34801561053b57600080fd5b5061055660048036038101906105519190612352565b611a0f565b005b34801561056457600080fd5b5061057f600480360381019061057a9190612352565b611ae3565b60405161058c9190612908565b60405180910390f35b3480156105a157600080fd5b506105bc60048036038101906105b79190612352565b611c62565b005b6105d860048036038101906105d39190612834565b611f77565b005b3480156105e657600080fd5b506105ef612105565b6040516105fc9190612870565b60405180910390f35b34801561061157600080fd5b5061061a61212b565b005b34801561062857600080fd5b506106316122ba565b60405161063e9190612870565b60405180910390f35b60076020528060005260406000206000915090505481565b606080606080600260009054906101000a900473ffffffffffffffffffffffffffffffffffffffff1673ffffffffffffffffffffffffffffffffffffffff163373ffffffffffffffffffffffffffffffffffffffff16146106f5576040517f08c379a00000000000000000000000000000000000000000000000000000000081526004016106ec90612c15565b60405180910390fd5b6000805b6004805490508110156107a157600860006004838154811061071e5761071d612c35565b5b9060005260206000200160009054906101000a900473ffffffffffffffffffffffffffffffffffffffff1673ffffffffffffffffffffffffffffffffffffffff1673ffffffffffffffffffffffffffffffffffffffff16815260200190815260200160002080549050826107929190612c93565b915080806001019150506106f9565b5060008167ffffffffffffffff8111156107be576107bd61292d565b5b6040519080825280602002602001820160405280156107ec5781602001602082028036833780820191505090505b50905060008267ffffffffffffffff81111561080b5761080a61292d565b5b6040519080825280602002602001820160405280156108395781602001602082028036833780820191505090505b50905060008367ffffffffffffffff8111156108585761085761292d565b5b60405190808252806020026020018201604052801561088b57816020015b60608152602001906001900390816108765790505b50905060008467ffffffffffffffff8111156108aa576108a961292d565b5b6040519080825280602002602001820160405280156108d85781602001602082028036833780820191505090505b5090506000805b600480549050811015610b805760006004828154811061090257610901612c35565b5b9060005260206000200160009054906101000a900473ffffffffffffffffffffffffffffffffffffffff1690506000600860008373ffffffffffffffffffffffffffffffffffffffff1673ffffffffffffffffffffffffffffffffffffffff168152602001908152602001600020905060005b8180549050811015610b70578289868151811061099557610994612c35565b5b602002602001019073ffffffffffffffffffffffffffffffffffffffff16908173ffffffffffffffffffffffffffffffffffffffff16815250508181815481106109e2576109e1612c35565b5b906000526020600020906003020160000154888681518110610a0757610a06612c35565b5b602002602001018181525050818181548110610a2657610a25612c35565b5b90600052602060002090600302016001018054610a4290612cf6565b80601f0160208091040260200160405190810160405280929190818152602001828054610a6e90612cf6565b8015610abb5780601f10610a9057610100808354040283529160200191610abb565b820191906000526020600020905b815481529060010190602001808311610a9e57829003601f168201915b5050505050878681518110610ad357610ad2612c35565b5b6020026020010181905250818181548110610af157610af0612c35565b5b906000526020600020906003020160020160009054906101000a900460ff16868681518110610b2357610b22612c35565b5b60200260200101906002811115610b3d57610b3c6126ad565b5b90816002811115610b5157610b506126ad565b5b815250508480610b6090612d27565b9550508080600101915050610975565b50505080806001019150506108df565b5084848484995099509950995050505050505090919293565b60015481565b60048181548110610baf57600080fd5b906000526020600020016000915054906101000a900473ffffffffffffffffffffffffffffffffffffffff1681565b60606004805480602002602001604051908101604052809291908181526020018280548015610c6257602002820191906000526020600020905b8160009054906101000a900473ffffffffffffffffffffffffffffffffffffffff1673ffffffffffffffffffffffffffffffffffffffff1681526020019060010190808311610c18575b5050505050905090565b600081600560008573ffffffffffffffffffffffffffffffffffffffff1673ffffffffffffffffffffffffffffffffffffffff168152602001908152602001600020819055506001905092915050565b60003390506000600760008373ffffffffffffffffffffffffffffffffffffffff1673ffffffffffffffffffffffffffffffffffffffff16815260200190815260200160002054905060008111610d48576040517f08c379a0000000000000000000000000000000000000000000000000000000008152600401610d3f90612dbb565b60405180910390fd5b82811015610d8b576040517f08c379a0000000000000000000000000000000000000000000000000000000008152600401610d8290612e27565b60405180910390fd5b600073765de816845861e75a25fca122bb6898b8b1282a90508073ffffffffffffffffffffffffffffffffffffffff1663a9059cbb84866040518363ffffffff1660e01b8152600401610ddf929190612e47565b6020604051808303816000875af1158015610dfe573d6000803e3d6000fd5b505050506040513d601f19601f82011682018060405250810190610e229190612e9c565b610e61576040517f08c379a0000000000000000000000000000000000000000000000000000000008152600401610e5890612f15565b60405180910390fd5b600084600760008673ffffffffffffffffffffffffffffffffffffffff1673ffffffffffffffffffffffffffffffffffffffff16815260200190815260200160002054610eae9190612f35565b905080600760008673ffffffffffffffffffffffffffffffffffffffff1673ffffffffffffffffffffffffffffffffffffffff168152602001908152602001600020819055505050505050565b6000600860003373ffffffffffffffffffffffffffffffffffffffff1673ffffffffffffffffffffffffffffffffffffffff16815260200190815260200160002080549050148061102e575060006002811115610f5b57610f5a6126ad565b5b600860003373ffffffffffffffffffffffffffffffffffffffff1673ffffffffffffffffffffffffffffffffffffffff1681526020019081526020016000206001600860003373ffffffffffffffffffffffffffffffffffffffff1673ffffffffffffffffffffffffffffffffffffffff16815260200190815260200160002080549050610fe99190612f35565b81548110610ffa57610ff9612c35565b5b906000526020600020906003020160020160009054906101000a900460ff16600281111561102b5761102a6126ad565b5b14155b61106d576040517f08c379a000000000000000000000000000000000000000000000000000000000815260040161106490612fb5565b60405180910390fd5b600860003373ffffffffffffffffffffffffffffffffffffffff1673ffffffffffffffffffffffffffffffffffffffff1681526020019081526020016000206040518060600160405280848152602001838152602001600060028111156110d7576110d66126ad565b5b81525090806001815401808255809150506001900390600052602060002090600302016000909190919091506000820151816000015560208201518160010190816111229190613181565b5060408201518160020160006101000a81548160ff0219169083600281111561114e5761114d6126ad565b5b021790555050505050565b6000600260009054906101000a900473ffffffffffffffffffffffffffffffffffffffff16905090565b6000600560008373ffffffffffffffffffffffffffffffffffffffff1673ffffffffffffffffffffffffffffffffffffffff168152602001908152602001600020549050919050565b600080546111d990612cf6565b80601f016020809104026020016040519081016040528092919081815260200182805461120590612cf6565b80156112525780601f1061122757610100808354040283529160200191611252565b820191906000526020600020905b81548152906001019060200180831161123557829003601f168201915b505050505081565b6008602052816000526040600020818154811061127657600080fd5b9060005260206000209060030201600091509150508060000154908060010180546112a090612cf6565b80601f01602080910402602001604051908101604052809291908181526020018280546112cc90612cf6565b80156113195780601f106112ee57610100808354040283529160200191611319565b820191906000526020600020905b8154815290600101906020018083116112fc57829003601f168201915b5050505050908060020160009054906101000a900460ff16905083565b6060600660008373ffffffffffffffffffffffffffffffffffffffff1673ffffffffffffffffffffffffffffffffffffffff168152602001908152602001600020805461138290612cf6565b80601f01602080910402602001604051908101604052809291908181526020018280546113ae90612cf6565b80156113fb5780601f106113d0576101008083540402835291602001916113fb565b820191906000526020600020905b8154815290600101906020018083116113de57829003601f168201915b50505050509050919050565b600081600660008573ffffffffffffffffffffffffffffffffffffffff1673ffffffffffffffffffffffffffffffffffffffff16815260200190815260200160002090816114559190613181565b506001905092915050565b600260009054906101000a900473ffffffffffffffffffffffffffffffffffffffff1673ffffffffffffffffffffffffffffffffffffffff163373ffffffffffffffffffffffffffffffffffffffff16146114f0576040517f08c379a00000000000000000000000000000000000000000000000000000000081526004016114e790612c15565b60405180910390fd5b6000600860008373ffffffffffffffffffffffffffffffffffffffff1673ffffffffffffffffffffffffffffffffffffffff1681526020019081526020016000208054905011611575576040517f08c379a000000000000000000000000000000000000000000000000000000000815260040161156c906132c5565b60405180910390fd5b60006002811115611589576115886126ad565b5b600860008373ffffffffffffffffffffffffffffffffffffffff1673ffffffffffffffffffffffffffffffffffffffff1681526020019081526020016000206001600860008573ffffffffffffffffffffffffffffffffffffffff1673ffffffffffffffffffffffffffffffffffffffff168152602001908152602001600020805490506116179190612f35565b8154811061162857611627612c35565b5b906000526020600020906003020160020160009054906101000a900460ff166002811115611659576116586126ad565b5b14611699576040517f08c379a0000000000000000000000000000000000000000000000000000000008152600401611690906132c5565b60405180910390fd5b6001600860008373ffffffffffffffffffffffffffffffffffffffff1673ffffffffffffffffffffffffffffffffffffffff1681526020019081526020016000206001600860008573ffffffffffffffffffffffffffffffffffffffff1673ffffffffffffffffffffffffffffffffffffffff168152602001908152602001600020805490506117299190612f35565b8154811061173a57611739612c35565b5b906000526020600020906003020160020160006101000a81548160ff0219169083600281111561176d5761176c6126ad565b5b02179055506000600860008373ffffffffffffffffffffffffffffffffffffffff1673ffffffffffffffffffffffffffffffffffffffff1681526020019081526020016000206001600860008573ffffffffffffffffffffffffffffffffffffffff1673ffffffffffffffffffffffffffffffffffffffff168152602001908152602001600020805490506118029190612f35565b8154811061181357611812612c35565b5b90600052602060002090600302016000015490506000829050600073765de816845861e75a25fca122bb6898b8b1282a905060008190508073ffffffffffffffffffffffffffffffffffffffff1663a9059cbb84866040518363ffffffff1660e01b8152600401611885929190612e47565b6020604051808303816000875af11580156118a4573d6000803e3d6000fd5b505050506040513d601f19601f820116820180604052508101906118c89190612e9c565b611907576040517f08c379a00000000000000000000000000000000000000000000000000000000081526004016118fe90613331565b60405180910390fd5b5050505050565b60056020528060005260406000206000915090505481565b6000600760008373ffffffffffffffffffffffffffffffffffffffff1673ffffffffffffffffffffffffffffffffffffffff168152602001908152602001600020549050919050565b6006602052806000526040600020600091509050805461198e90612cf6565b80601f01602080910402602001604051908101604052809291908181526020018280546119ba90612cf6565b8015611a075780601f106119dc57610100808354040283529160200191611a07565b820191906000526020600020905b8154815290600101906020018083116119ea57829003601f168201915b505050505081565b600260009054906101000a900473ffffffffffffffffffffffffffffffffffffffff1673ffffffffffffffffffffffffffffffffffffffff163373ffffffffffffffffffffffffffffffffffffffff1614611a9f576040517f08c379a0000000000000000000000000000000000000000000000000000000008152600401611a9690612c15565b60405180910390fd5b80600360006101000a81548173ffffffffffffffffffffffffffffffffffffffff021916908373ffffffffffffffffffffffffffffffffffffffff16021790555050565b60008160005b600480549050811015611baf578173ffffffffffffffffffffffffffffffffffffffff1660048281548110611b2157611b20612c35565b5b9060005260206000200160009054906101000a900473ffffffffffffffffffffffffffffffffffffffff1673ffffffffffffffffffffffffffffffffffffffff1603611ba2576040517f08c379a0000000000000000000000000000000000000000000000000000000008152600401611b999061339d565b60405180910390fd5b8080600101915050611ae9565b506004839080600181540180825580915050600190039060005260206000200160009091909190916101000a81548173ffffffffffffffffffffffffffffffffffffffff021916908373ffffffffffffffffffffffffffffffffffffffff1602179055506000600760008573ffffffffffffffffffffffffffffffffffffffff1673ffffffffffffffffffffffffffffffffffffffff168152602001908152602001600020819055506001915050919050565b600260009054906101000a900473ffffffffffffffffffffffffffffffffffffffff1673ffffffffffffffffffffffffffffffffffffffff163373ffffffffffffffffffffffffffffffffffffffff1614611cf2576040517f08c379a0000000000000000000000000000000000000000000000000000000008152600401611ce990612c15565b60405180910390fd5b6000600860008373ffffffffffffffffffffffffffffffffffffffff1673ffffffffffffffffffffffffffffffffffffffff1681526020019081526020016000208054905011611d77576040517f08c379a0000000000000000000000000000000000000000000000000000000008152600401611d6e906132c5565b60405180910390fd5b60006002811115611d8b57611d8a6126ad565b5b600860008373ffffffffffffffffffffffffffffffffffffffff1673ffffffffffffffffffffffffffffffffffffffff1681526020019081526020016000206001600860008573ffffffffffffffffffffffffffffffffffffffff1673ffffffffffffffffffffffffffffffffffffffff16815260200190815260200160002080549050611e199190612f35565b81548110611e2a57611e29612c35565b5b906000526020600020906003020160020160009054906101000a900460ff166002811115611e5b57611e5a6126ad565b5b14611e9b576040517f08c379a0000000000000000000000000000000000000000000000000000000008152600401611e92906132c5565b60405180910390fd5b6002600860008373ffffffffffffffffffffffffffffffffffffffff1673ffffffffffffffffffffffffffffffffffffffff1681526020019081526020016000206001600860008573ffffffffffffffffffffffffffffffffffffffff1673ffffffffffffffffffffffffffffffffffffffff16815260200190815260200160002080549050611f2b9190612f35565b81548110611f3c57611f3b612c35565b5b906000526020600020906003020160020160006101000a81548160ff02191690836002811115611f6f57611f6e6126ad565b5b021790555050565b600260009054906101000a900473ffffffffffffffffffffffffffffffffffffffff1673ffffffffffffffffffffffffffffffffffffffff163373ffffffffffffffffffffffffffffffffffffffff1614612007576040517f08c379a0000000000000000000000000000000000000000000000000000000008152600401611ffe90612c15565b60405180910390fd5b600073765de816845861e75a25fca122bb6898b8b1282a90508073ffffffffffffffffffffffffffffffffffffffff166323b872dd600260009054906101000a900473ffffffffffffffffffffffffffffffffffffffff1630856040518463ffffffff1660e01b815260040161207f93929190613412565b6020604051808303816000875af115801561209e573d6000803e3d6000fd5b505050506040513d601f19601f820116820180604052508101906120c29190612e9c565b612101576040517f08c379a00000000000000000000000000000000000000000000000000000000081526004016120f890613495565b60405180910390fd5b5050565b600260009054906101000a900473ffffffffffffffffffffffffffffffffffffffff1681565b600260009054906101000a900473ffffffffffffffffffffffffffffffffffffffff1673ffffffffffffffffffffffffffffffffffffffff163373ffffffffffffffffffffffffffffffffffffffff16146121bb576040517f08c379a00000000000000000000000000000000000000000000000000000000081526004016121b290612c15565b60405180910390fd5b60005b6004805490508110156122b7576000600482815481106121e1576121e0612c35565b5b9060005260206000200160009054906101000a900473ffffffffffffffffffffffffffffffffffffffff1690506000600560008373ffffffffffffffffffffffffffffffffffffffff1673ffffffffffffffffffffffffffffffffffffffff16815260200190815260200160002054905080600760008473ffffffffffffffffffffffffffffffffffffffff1673ffffffffffffffffffffffffffffffffffffffff16815260200190815260200160002060008282546122a19190612c93565b92505081905550505080806001019150506121be565b50565b600360009054906101000a900473ffffffffffffffffffffffffffffffffffffffff1681565b6000604051905090565b600080fd5b600080fd5b600073ffffffffffffffffffffffffffffffffffffffff82169050919050565b600061231f826122f4565b9050919050565b61232f81612314565b811461233a57600080fd5b50565b60008135905061234c81612326565b92915050565b600060208284031215612368576123676122ea565b5b60006123768482850161233d565b91505092915050565b6000819050919050565b6123928161237f565b82525050565b60006020820190506123ad6000830184612389565b92915050565b600081519050919050565b600082825260208201905092915050565b6000819050602082019050919050565b6123e881612314565b82525050565b60006123fa83836123df565b60208301905092915050565b6000602082019050919050565b600061241e826123b3565b61242881856123be565b9350612433836123cf565b8060005b8381101561246457815161244b88826123ee565b975061245683612406565b925050600181019050612437565b5085935050505092915050565b600081519050919050565b600082825260208201905092915050565b6000819050602082019050919050565b6124a68161237f565b82525050565b60006124b8838361249d565b60208301905092915050565b6000602082019050919050565b60006124dc82612471565b6124e6818561247c565b93506124f18361248d565b8060005b8381101561252257815161250988826124ac565b9750612514836124c4565b9250506001810190506124f5565b5085935050505092915050565b600081519050919050565b600082825260208201905092915050565b6000819050602082019050919050565b600081519050919050565b600082825260208201905092915050565b60005b8381101561259557808201518184015260208101905061257a565b60008484015250505050565b6000601f19601f8301169050919050565b60006125bd8261255b565b6125c78185612566565b93506125d7818560208601612577565b6125e0816125a1565b840191505092915050565b60006125f783836125b2565b905092915050565b6000602082019050919050565b60006126178261252f565b612621818561253a565b9350836020820285016126338561254b565b8060005b8581101561266f578484038952815161265085826125eb565b945061265b836125ff565b925060208a01995050600181019050612637565b50829750879550505050505092915050565b600081519050919050565b600082825260208201905092915050565b6000819050602082019050919050565b7f4e487b7100000000000000000000000000000000000000000000000000000000600052602160045260246000fd5b600381106126ed576126ec6126ad565b5b50565b60008190506126fe826126dc565b919050565b600061270e826126f0565b9050919050565b61271e81612703565b82525050565b60006127308383612715565b60208301905092915050565b6000602082019050919050565b600061275482612681565b61275e818561268c565b93506127698361269d565b8060005b8381101561279a5781516127818882612724565b975061278c8361273c565b92505060018101905061276d565b5085935050505092915050565b600060808201905081810360008301526127c18187612413565b905081810360208301526127d581866124d1565b905081810360408301526127e9818561260c565b905081810360608301526127fd8184612749565b905095945050505050565b6128118161237f565b811461281c57600080fd5b50565b60008135905061282e81612808565b92915050565b60006020828403121561284a576128496122ea565b5b60006128588482850161281f565b91505092915050565b61286a81612314565b82525050565b60006020820190506128856000830184612861565b92915050565b600060208201905081810360008301526128a58184612413565b905092915050565b600080604083850312156128c4576128c36122ea565b5b60006128d28582860161233d565b92505060206128e38582860161281f565b9150509250929050565b60008115159050919050565b612902816128ed565b82525050565b600060208201905061291d60008301846128f9565b92915050565b600080fd5b600080fd5b7f4e487b7100000000000000000000000000000000000000000000000000000000600052604160045260246000fd5b612965826125a1565b810181811067ffffffffffffffff821117156129845761298361292d565b5b80604052505050565b60006129976122e0565b90506129a3828261295c565b919050565b600067ffffffffffffffff8211156129c3576129c261292d565b5b6129cc826125a1565b9050602081019050919050565b82818337600083830152505050565b60006129fb6129f6846129a8565b61298d565b905082815260208101848484011115612a1757612a16612928565b5b612a228482856129d9565b509392505050565b600082601f830112612a3f57612a3e612923565b5b8135612a4f8482602086016129e8565b91505092915050565b60008060408385031215612a6f57612a6e6122ea565b5b6000612a7d8582860161281f565b925050602083013567ffffffffffffffff811115612a9e57612a9d6122ef565b5b612aaa85828601612a2a565b9150509250929050565b600082825260208201905092915050565b6000612ad08261255b565b612ada8185612ab4565b9350612aea818560208601612577565b612af3816125a1565b840191505092915050565b60006020820190508181036000830152612b188184612ac5565b905092915050565b612b2981612703565b82525050565b6000606082019050612b446000830186612389565b8181036020830152612b568185612ac5565b9050612b656040830184612b20565b949350505050565b60008060408385031215612b8457612b836122ea565b5b6000612b928582860161233d565b925050602083013567ffffffffffffffff811115612bb357612bb26122ef565b5b612bbf85828601612a2a565b9150509250929050565b7f4e6f7420616e2041646d696e0000000000000000000000000000000000000000600082015250565b6000612bff600c83612ab4565b9150612c0a82612bc9565b602082019050919050565b60006020820190508181036000830152612c2e81612bf2565b9050919050565b7f4e487b7100000000000000000000000000000000000000000000000000000000600052603260045260246000fd5b7f4e487b7100000000000000000000000000000000000000000000000000000000600052601160045260246000fd5b6000612c9e8261237f565b9150612ca98361237f565b9250828201905080821115612cc157612cc0612c64565b5b92915050565b7f4e487b7100000000000000000000000000000000000000000000000000000000600052602260045260246000fd5b60006002820490506001821680612d0e57607f821691505b602082108103612d2157612d20612cc7565b5b50919050565b6000612d328261237f565b91507fffffffffffffffffffffffffffffffffffffffffffffffffffffffffffffffff8203612d6457612d63612c64565b5b600182019050919050565b7f4e6f2073616c61727920746f2077697468647261770000000000000000000000600082015250565b6000612da5601583612ab4565b9150612db082612d6f565b602082019050919050565b60006020820190508181036000830152612dd481612d98565b9050919050565b7f416d6f756e7420657863656564732062616c616e636500000000000000000000600082015250565b6000612e11601683612ab4565b9150612e1c82612ddb565b602082019050919050565b60006020820190508181036000830152612e4081612e04565b9050919050565b6000604082019050612e5c6000830185612861565b612e696020830184612389565b9392505050565b612e79816128ed565b8114612e8457600080fd5b50565b600081519050612e9681612e70565b92915050565b600060208284031215612eb257612eb16122ea565b5b6000612ec084828501612e87565b91505092915050565b7f5472616e73666572206661696c65640000000000000000000000000000000000600082015250565b6000612eff600f83612ab4565b9150612f0a82612ec9565b602082019050919050565b60006020820190508181036000830152612f2e81612ef2565b9050919050565b6000612f408261237f565b9150612f4b8361237f565b9250828203905081811115612f6357612f62612c64565b5b92915050565b7f596f7520616c7265616479206861766520616e20616374697665206c6f616e00600082015250565b6000612f9f601f83612ab4565b9150612faa82612f69565b602082019050919050565b60006020820190508181036000830152612fce81612f92565b9050919050565b60008190508160005260206000209050919050565b60006020601f8301049050919050565b600082821b905092915050565b6000600883026130377fffffffffffffffffffffffffffffffffffffffffffffffffffffffffffffffff82612ffa565b6130418683612ffa565b95508019841693508086168417925050509392505050565b6000819050919050565b600061307e6130796130748461237f565b613059565b61237f565b9050919050565b6000819050919050565b61309883613063565b6130ac6130a482613085565b848454613007565b825550505050565b600090565b6130c16130b4565b6130cc81848461308f565b505050565b5b818110156130f0576130e56000826130b9565b6001810190506130d2565b5050565b601f8211156131355761310681612fd5565b61310f84612fea565b8101602085101561311e578190505b61313261312a85612fea565b8301826130d1565b50505b505050565b600082821c905092915050565b60006131586000198460080261313a565b1980831691505092915050565b60006131718383613147565b9150826002028217905092915050565b61318a8261255b565b67ffffffffffffffff8111156131a3576131a261292d565b5b6131ad8254612cf6565b6131b88282856130f4565b600060209050601f8311600181146131eb57600084156131d9578287015190505b6131e38582613165565b86555061324b565b601f1984166131f986612fd5565b60005b82811015613221578489015182556001820191506020850194506020810190506131fc565b8683101561323e578489015161323a601f891682613147565b8355505b6001600288020188555050505b505050505050565b7f4e6f2070656e64696e67206c6f616e7320666f72207468697320656d706c6f7960008201527f6565000000000000000000000000000000000000000000000000000000000000602082015250565b60006132af602283612ab4565b91506132ba82613253565b604082019050919050565b600060208201905081810360008301526132de816132a2565b9050919050565b7f5472616e73666572206f662066756e6473206661696c65640000000000000000600082015250565b600061331b601883612ab4565b9150613326826132e5565b602082019050919050565b6000602082019050818103600083015261334a8161330e565b9050919050565b7f456d706c6f79656520616c726561647920457869737473000000000000000000600082015250565b6000613387601783612ab4565b915061339282613351565b602082019050919050565b600060208201905081810360008301526133b68161337a565b9050919050565b60006133d86133d36133ce846122f4565b613059565b6122f4565b9050919050565b60006133ea826133bd565b9050919050565b60006133fc826133df565b9050919050565b61340c816133f1565b82525050565b60006060820190506134276000830186612861565b6134346020830185613403565b6134416040830184612389565b949350505050565b7f4465706f736974206661696c6564000000000000000000000000000000000000600082015250565b600061347f600e83612ab4565b915061348a82613449565b602082019050919050565b600060208201905081810360008301526134ae81613472565b905091905056fea264697066735822122053b3adef8e0928552863bf9d31ef3a64d08b7785b4691dcb6c53728b3d4a994464736f6c63430008180033a2646970667358221220c5e85c793c9bf4a83ca4868b78bafcfaf2f5c66bacedb9c4b528a7086efca18c64736f6c63430008180033",
  "linkReferences": {},
  "deployedLinkReferences": {}
}